{
  "_format": "hh-sol-artifact-1",
  "contractName": "TrustX",
  "sourceName": "contracts/TrustX.sol",
  "abi": [
    {
      "anonymous": false,
      "inputs": [
        {
          "indexed": false,
          "internalType": "uint256",
          "name": "jobId",
          "type": "uint256"
        },
        {
          "indexed": false,
          "internalType": "address",
          "name": "raiser",
          "type": "address"
        }
      ],
      "name": "DisputeRaised",
      "type": "event"
    },
    {
      "anonymous": false,
      "inputs": [
        {
          "indexed": false,
          "internalType": "uint256",
          "name": "jobId",
          "type": "uint256"
        },
        {
          "indexed": false,
          "internalType": "address",
          "name": "freelancer",
          "type": "address"
        },
        {
          "indexed": false,
          "internalType": "uint256",
          "name": "amount",
          "type": "uint256"
        }
      ],
      "name": "FundsReleased",
      "type": "event"
    },
    {
      "anonymous": false,
      "inputs": [
        {
          "indexed": false,
          "internalType": "uint256",
          "name": "jobId",
          "type": "uint256"
        },
        {
          "indexed": false,
          "internalType": "string",
          "name": "deliverables",
          "type": "string"
        }
      ],
      "name": "JobCompleted",
      "type": "event"
    },
    {
      "anonymous": false,
      "inputs": [
        {
          "indexed": false,
          "internalType": "uint256",
          "name": "jobId",
          "type": "uint256"
        },
        {
          "indexed": false,
          "internalType": "address",
          "name": "client",
          "type": "address"
        },
        {
          "indexed": false,
          "internalType": "address",
          "name": "freelancer",
          "type": "address"
        },
        {
          "indexed": false,
          "internalType": "uint256",
          "name": "amount",
          "type": "uint256"
        }
      ],
      "name": "JobCreated",
      "type": "event"
    },
    {
      "anonymous": false,
      "inputs": [
        {
          "indexed": false,
          "internalType": "address",
          "name": "freelancer",
          "type": "address"
        }
      ],
      "name": "ProfileVerificationRequested",
      "type": "event"
    },
    {
      "anonymous": false,
      "inputs": [
        {
          "indexed": false,
          "internalType": "address",
          "name": "freelancer",
          "type": "address"
        },
        {
          "indexed": false,
          "internalType": "bool",
          "name": "isVerified",
          "type": "bool"
        }
      ],
      "name": "ProfileVerified",
      "type": "event"
    },
    {
      "anonymous": false,
      "inputs": [
        {
          "indexed": false,
          "internalType": "address",
          "name": "freelancer",
          "type": "address"
        },
        {
          "indexed": false,
          "internalType": "uint256",
          "name": "rating",
          "type": "uint256"
        }
      ],
      "name": "RatingSubmitted",
      "type": "event"
    },
    {
      "inputs": [
        {
          "internalType": "address",
          "name": "_freelancer",
          "type": "address"
        },
        {
          "internalType": "uint256",
          "name": "_deadline",
          "type": "uint256"
        }
      ],
      "name": "createJob",
      "outputs": [],
      "stateMutability": "payable",
      "type": "function"
    },
    {
      "inputs": [
        {
          "internalType": "address",
          "name": "",
          "type": "address"
        }
      ],
      "name": "freelancers",
      "outputs": [
        {
          "internalType": "address",
          "name": "freelancerAddress",
          "type": "address"
        },
        {
          "internalType": "uint256",
          "name": "rating",
          "type": "uint256"
        },
        {
          "internalType": "uint256",
          "name": "jobCount",
          "type": "uint256"
        },
        {
          "internalType": "bool",
          "name": "isVerified",
          "type": "bool"
        }
      ],
      "stateMutability": "view",
      "type": "function"
    },
    {
      "inputs": [
        {
          "internalType": "address",
          "name": "_freelancer",
          "type": "address"
        }
      ],
      "name": "getFreelancer",
      "outputs": [
        {
          "components": [
            {
              "internalType": "address",
              "name": "freelancerAddress",
              "type": "address"
            },
            {
              "internalType": "uint256",
              "name": "rating",
              "type": "uint256"
            },
            {
              "internalType": "uint256",
              "name": "jobCount",
              "type": "uint256"
            },
            {
              "internalType": "bool",
              "name": "isVerified",
              "type": "bool"
            }
          ],
          "internalType": "struct TrustX.Freelancer",
          "name": "",
          "type": "tuple"
        }
      ],
      "stateMutability": "view",
      "type": "function"
    },
    {
      "inputs": [
        {
          "internalType": "uint256",
          "name": "_jobId",
          "type": "uint256"
        }
      ],
      "name": "getJob",
      "outputs": [
        {
          "components": [
            {
              "internalType": "uint256",
              "name": "jobId",
              "type": "uint256"
            },
            {
              "internalType": "address",
              "name": "client",
              "type": "address"
            },
            {
              "internalType": "address",
              "name": "freelancer",
              "type": "address"
            },
            {
              "internalType": "uint256",
              "name": "amount",
              "type": "uint256"
            },
            {
              "internalType": "string",
              "name": "deliverables",
              "type": "string"
            },
            {
              "internalType": "bool",
              "name": "isCompleted",
              "type": "bool"
            },
            {
              "internalType": "bool",
              "name": "isDisputed",
              "type": "bool"
            },
            {
              "internalType": "uint256",
              "name": "deadline",
              "type": "uint256"
            }
          ],
          "internalType": "struct TrustX.Job",
          "name": "",
          "type": "tuple"
        }
      ],
      "stateMutability": "view",
      "type": "function"
    },
    {
      "inputs": [],
      "name": "jobCounter",
      "outputs": [
        {
          "internalType": "uint256",
          "name": "",
          "type": "uint256"
        }
      ],
      "stateMutability": "view",
      "type": "function"
    },
    {
      "inputs": [
        {
          "internalType": "uint256",
          "name": "",
          "type": "uint256"
        }
      ],
      "name": "jobs",
      "outputs": [
        {
          "internalType": "uint256",
          "name": "jobId",
          "type": "uint256"
        },
        {
          "internalType": "address",
          "name": "client",
          "type": "address"
        },
        {
          "internalType": "address",
          "name": "freelancer",
          "type": "address"
        },
        {
          "internalType": "uint256",
          "name": "amount",
          "type": "uint256"
        },
        {
          "internalType": "string",
          "name": "deliverables",
          "type": "string"
        },
        {
          "internalType": "bool",
          "name": "isCompleted",
          "type": "bool"
        },
        {
          "internalType": "bool",
          "name": "isDisputed",
          "type": "bool"
        },
        {
          "internalType": "uint256",
          "name": "deadline",
          "type": "uint256"
        }
      ],
      "stateMutability": "view",
      "type": "function"
    },
    {
      "inputs": [
        {
          "internalType": "uint256",
          "name": "_jobId",
          "type": "uint256"
        }
      ],
      "name": "raiseDispute",
      "outputs": [],
      "stateMutability": "nonpayable",
      "type": "function"
    },
    {
      "inputs": [],
      "name": "registerFreelancer",
      "outputs": [],
      "stateMutability": "nonpayable",
      "type": "function"
    },
    {
      "inputs": [
        {
          "internalType": "uint256",
          "name": "_jobId",
          "type": "uint256"
        }
      ],
      "name": "releaseFunds",
      "outputs": [],
      "stateMutability": "nonpayable",
      "type": "function"
    },
    {
      "inputs": [
        {
          "internalType": "uint256",
          "name": "_jobId",
          "type": "uint256"
        },
        {
          "internalType": "string",
          "name": "_deliverables",
          "type": "string"
        }
      ],
      "name": "submitDeliverables",
      "outputs": [],
      "stateMutability": "nonpayable",
      "type": "function"
    },
    {
      "inputs": [
        {
          "internalType": "uint256",
          "name": "_jobId",
          "type": "uint256"
        },
        {
          "internalType": "uint256",
          "name": "_rating",
          "type": "uint256"
        }
      ],
      "name": "submitRating",
      "outputs": [],
      "stateMutability": "nonpayable",
      "type": "function"
    },
    {
      "inputs": [
        {
          "internalType": "address",
          "name": "_freelancer",
          "type": "address"
        },
        {
          "internalType": "bool",
          "name": "_isVerified",
          "type": "bool"
        }
      ],
      "name": "verifyProfile",
      "outputs": [],
      "stateMutability": "nonpayable",
      "type": "function"
    }
  ],
  "bytecode": "0x608060405234801561001057600080fd5b5061262a806100206000396000f3fe6080604052600436106100a75760003560e01c806356412d3a1161006457806356412d3a146101c957806364df6ab1146101f2578063708511711461022f5780637721710e14610258578063a5c1674e1461026f578063bf22c45714610298576100a7565b80630e60146d146100ac578063180aedf3146100d557806321bd6693146101195780633f2a66f8146101595780634d68282f1461017557806350355d761461019e575b600080fd5b3480156100b857600080fd5b506100d360048036038101906100ce9190611929565b6102d5565b005b3480156100e157600080fd5b506100fc60048036038101906100f79190611900565b6104aa565b604051610110989796959493929190612182565b60405180910390f35b34801561012557600080fd5b50610140600480360381019061013b919061185f565b6105d4565b6040516101509493929190611ef7565b60405180910390f35b610173600480360381019061016e91906118c4565b610631565b005b34801561018157600080fd5b5061019c60048036038101906101979190611900565b6109cc565b005b3480156101aa57600080fd5b506101b3610c08565b6040516101c091906120f9565b60405180910390f35b3480156101d557600080fd5b506101f060048036038101906101eb9190611888565b610c0e565b005b3480156101fe57600080fd5b506102196004803603810190610214919061185f565b610d3e565b60405161022691906120bc565b60405180910390f35b34801561023b57600080fd5b506102566004803603810190610251919061197d565b610e1b565b005b34801561026457600080fd5b5061026d61109e565b005b34801561027b57600080fd5b5061029660048036038101906102919190611900565b61129f565b005b3480156102a457600080fd5b506102bf60048036038101906102ba9190611900565b6114a0565b6040516102cc91906120d7565b60405180910390f35b816001600082815260200190815260200160002060020160009054906101000a900473ffffffffffffffffffffffffffffffffffffffff1673ffffffffffffffffffffffffffffffffffffffff163373ffffffffffffffffffffffffffffffffffffffff161461037a576040517f08c379a00000000000000000000000000000000000000000000000000000000081526004016103719061205c565b60405180910390fd5b60006001600085815260200190815260200160002090508060050160009054906101000a900460ff16156103e3576040517f08c379a00000000000000000000000000000000000000000000000000000000081526004016103da9061201c565b60405180910390fd5b8060050160019054906101000a900460ff1615610435576040517f08c379a000000000000000000000000000000000000000000000000000000000815260040161042c9061203c565b60405180910390fd5b8281600401908051906020019061044d929190611660565b5060018160050160006101000a81548160ff0219169083151502179055507f080714acc27e4104af24a8f8ef423633b2dfd61685662f7db998624db4dd3385848460405161049c92919061223e565b60405180910390a150505050565b60016020528060005260406000206000915090508060000154908060010160009054906101000a900473ffffffffffffffffffffffffffffffffffffffff16908060020160009054906101000a900473ffffffffffffffffffffffffffffffffffffffff169080600301549080600401805461052590612467565b80601f016020809104026020016040519081016040528092919081815260200182805461055190612467565b801561059e5780601f106105735761010080835404028352916020019161059e565b820191906000526020600020905b81548152906001019060200180831161058157829003601f168201915b5050505050908060050160009054906101000a900460ff16908060050160019054906101000a900460ff16908060060154905088565b60006020528060005260406000206000915090508060000160009054906101000a900473ffffffffffffffffffffffffffffffffffffffff16908060010154908060020154908060030160009054906101000a900460ff16905084565b60003411610674576040517f08c379a000000000000000000000000000000000000000000000000000000000815260040161066b90611fbc565b60405180910390fd5b600073ffffffffffffffffffffffffffffffffffffffff166000808473ffffffffffffffffffffffffffffffffffffffff1673ffffffffffffffffffffffffffffffffffffffff16815260200190815260200160002060000160009054906101000a900473ffffffffffffffffffffffffffffffffffffffff1673ffffffffffffffffffffffffffffffffffffffff161415610745576040517f08c379a000000000000000000000000000000000000000000000000000000000815260040161073c9061207c565b60405180910390fd5b6000808373ffffffffffffffffffffffffffffffffffffffff1673ffffffffffffffffffffffffffffffffffffffff16815260200190815260200160002060030160009054906101000a900460ff166107d3576040517f08c379a00000000000000000000000000000000000000000000000000000000081526004016107ca90611f7c565b60405180910390fd5b600260008154809291906107e690612499565b919050555060405180610100016040528060025481526020013373ffffffffffffffffffffffffffffffffffffffff1681526020018373ffffffffffffffffffffffffffffffffffffffff168152602001348152602001604051806020016040528060008152508152602001600015158152602001600015158152602001828152506001600060025481526020019081526020016000206000820151816000015560208201518160010160006101000a81548173ffffffffffffffffffffffffffffffffffffffff021916908373ffffffffffffffffffffffffffffffffffffffff16021790555060408201518160020160006101000a81548173ffffffffffffffffffffffffffffffffffffffff021916908373ffffffffffffffffffffffffffffffffffffffff16021790555060608201518160030155608082015181600401908051906020019061093b929190611660565b5060a08201518160050160006101000a81548160ff02191690831515021790555060c08201518160050160016101000a81548160ff02191690831515021790555060e082015181600601559050507f8f4ee83cefe0dfb2f73fe6057bfa5b233fc43358bbb5f5606f444cbd4c5c4f8c6002543384346040516109c0949392919061213d565b60405180910390a15050565b806001600082815260200190815260200160002060010160009054906101000a900473ffffffffffffffffffffffffffffffffffffffff1673ffffffffffffffffffffffffffffffffffffffff163373ffffffffffffffffffffffffffffffffffffffff1614610a71576040517f08c379a0000000000000000000000000000000000000000000000000000000008152600401610a6890611f5c565b60405180910390fd5b60006001600084815260200190815260200160002090508060050160009054906101000a900460ff16610ad9576040517f08c379a0000000000000000000000000000000000000000000000000000000008152600401610ad090611fdc565b60405180910390fd5b8060050160019054906101000a900460ff1615610b2b576040517f08c379a0000000000000000000000000000000000000000000000000000000008152600401610b229061203c565b60405180910390fd5b60008160020160009054906101000a900473ffffffffffffffffffffffffffffffffffffffff1690508073ffffffffffffffffffffffffffffffffffffffff166108fc83600301549081150290604051600060405180830381858888f19350505050158015610b9e573d6000803e3d6000fd5b507f6e3c6096795c8298a218b2cfb8bde42726ff7c9a3d27b4d3ba41ab7f74feb5fb848360020160009054906101000a900473ffffffffffffffffffffffffffffffffffffffff168460030154604051610bfa93929190612207565b60405180910390a150505050565b60025481565b60008060008473ffffffffffffffffffffffffffffffffffffffff1673ffffffffffffffffffffffffffffffffffffffff1681526020019081526020016000209050600073ffffffffffffffffffffffffffffffffffffffff168160000160009054906101000a900473ffffffffffffffffffffffffffffffffffffffff1673ffffffffffffffffffffffffffffffffffffffff161415610ce4576040517f08c379a0000000000000000000000000000000000000000000000000000000008152600401610cdb9061207c565b60405180910390fd5b818160030160006101000a81548160ff0219169083151502179055507f1a54de57409cde881501535c2cd15fafdcc1cfee166b0f7de867255b850c76d58383604051610d31929190611ea5565b60405180910390a1505050565b610d466116e6565b6000808373ffffffffffffffffffffffffffffffffffffffff1673ffffffffffffffffffffffffffffffffffffffff1681526020019081526020016000206040518060800160405290816000820160009054906101000a900473ffffffffffffffffffffffffffffffffffffffff1673ffffffffffffffffffffffffffffffffffffffff1673ffffffffffffffffffffffffffffffffffffffff16815260200160018201548152602001600282015481526020016003820160009054906101000a900460ff1615151515815250509050919050565b816001600082815260200190815260200160002060010160009054906101000a900473ffffffffffffffffffffffffffffffffffffffff1673ffffffffffffffffffffffffffffffffffffffff163373ffffffffffffffffffffffffffffffffffffffff1614610ec0576040517f08c379a0000000000000000000000000000000000000000000000000000000008152600401610eb790611f5c565b60405180910390fd5b6005821115610f04576040517f08c379a0000000000000000000000000000000000000000000000000000000008152600401610efb90611ffc565b60405180910390fd5b60006001600085815260200190815260200160002090508060050160009054906101000a900460ff16610f6c576040517f08c379a0000000000000000000000000000000000000000000000000000000008152600401610f6390611fdc565b60405180910390fd5b60008060008360020160009054906101000a900473ffffffffffffffffffffffffffffffffffffffff1673ffffffffffffffffffffffffffffffffffffffff1673ffffffffffffffffffffffffffffffffffffffff168152602001908152602001600020905060018160020154610fe391906122fc565b600a85610ff09190612383565b826002015483600101546110049190612383565b61100e91906122fc565b6110189190612352565b816001018190555080600201600081548092919061103590612499565b91905055507f472a3eb3a3d4dfe3e8ae686153c14036085032d0649b5dfe1e0254eb6c7766c88260020160009054906101000a900473ffffffffffffffffffffffffffffffffffffffff168560405161108f929190611ece565b60405180910390a15050505050565b600073ffffffffffffffffffffffffffffffffffffffff166000803373ffffffffffffffffffffffffffffffffffffffff1673ffffffffffffffffffffffffffffffffffffffff16815260200190815260200160002060000160009054906101000a900473ffffffffffffffffffffffffffffffffffffffff1673ffffffffffffffffffffffffffffffffffffffff161461116e576040517f08c379a000000000000000000000000000000000000000000000000000000000815260040161116590611f9c565b60405180910390fd5b60405180608001604052803373ffffffffffffffffffffffffffffffffffffffff1681526020016000815260200160008152602001600015158152506000803373ffffffffffffffffffffffffffffffffffffffff1673ffffffffffffffffffffffffffffffffffffffff16815260200190815260200160002060008201518160000160006101000a81548173ffffffffffffffffffffffffffffffffffffffff021916908373ffffffffffffffffffffffffffffffffffffffff160217905550602082015181600101556040820151816002015560608201518160030160006101000a81548160ff0219169083151502179055509050507f1d42552485b1df8fc54b478fccd7136588d3af17def9368752ada330e12af027336040516112959190611e8a565b60405180910390a1565b60006001600083815260200190815260200160002090508060010160009054906101000a900473ffffffffffffffffffffffffffffffffffffffff1673ffffffffffffffffffffffffffffffffffffffff163373ffffffffffffffffffffffffffffffffffffffff16148061136357508060020160009054906101000a900473ffffffffffffffffffffffffffffffffffffffff1673ffffffffffffffffffffffffffffffffffffffff163373ffffffffffffffffffffffffffffffffffffffff16145b6113a2576040517f08c379a00000000000000000000000000000000000000000000000000000000081526004016113999061209c565b60405180910390fd5b8060050160009054906101000a900460ff16156113f4576040517f08c379a00000000000000000000000000000000000000000000000000000000081526004016113eb9061201c565b60405180910390fd5b8060050160019054906101000a900460ff1615611446576040517f08c379a000000000000000000000000000000000000000000000000000000000815260040161143d90611f3c565b60405180910390fd5b60018160050160016101000a81548160ff0219169083151502179055507f84a477df8a28a4276ca6dee4458a06c3015f30c477d9c949ede4e13ff8a552b48233604051611494929190612114565b60405180910390a15050565b6114a8611726565b6001600083815260200190815260200160002060405180610100016040529081600082015481526020016001820160009054906101000a900473ffffffffffffffffffffffffffffffffffffffff1673ffffffffffffffffffffffffffffffffffffffff1673ffffffffffffffffffffffffffffffffffffffff1681526020016002820160009054906101000a900473ffffffffffffffffffffffffffffffffffffffff1673ffffffffffffffffffffffffffffffffffffffff1673ffffffffffffffffffffffffffffffffffffffff1681526020016003820154815260200160048201805461159790612467565b80601f01602080910402602001604051908101604052809291908181526020018280546115c390612467565b80156116105780601f106115e557610100808354040283529160200191611610565b820191906000526020600020905b8154815290600101906020018083116115f357829003601f168201915b505050505081526020016005820160009054906101000a900460ff161515151581526020016005820160019054906101000a900460ff161515151581526020016006820154815250509050919050565b82805461166c90612467565b90600052602060002090601f01602090048101928261168e57600085556116d5565b82601f106116a757805160ff19168380011785556116d5565b828001600101855582156116d5579182015b828111156116d45782518255916020019190600101906116b9565b5b5090506116e2919061179b565b5090565b6040518060800160405280600073ffffffffffffffffffffffffffffffffffffffff16815260200160008152602001600081526020016000151581525090565b60405180610100016040528060008152602001600073ffffffffffffffffffffffffffffffffffffffff168152602001600073ffffffffffffffffffffffffffffffffffffffff1681526020016000815260200160608152602001600015158152602001600015158152602001600081525090565b5b808211156117b457600081600090555060010161179c565b5090565b60006117cb6117c68461229f565b61226e565b9050828152602081018484840111156117e357600080fd5b6117ee848285612425565b509392505050565b600081359050611805816125af565b92915050565b60008135905061181a816125c6565b92915050565b600082601f83011261183157600080fd5b81356118418482602086016117b8565b91505092915050565b600081359050611859816125dd565b92915050565b60006020828403121561187157600080fd5b600061187f848285016117f6565b91505092915050565b6000806040838503121561189b57600080fd5b60006118a9858286016117f6565b92505060206118ba8582860161180b565b9150509250929050565b600080604083850312156118d757600080fd5b60006118e5858286016117f6565b92505060206118f68582860161184a565b9150509250929050565b60006020828403121561191257600080fd5b60006119208482850161184a565b91505092915050565b6000806040838503121561193c57600080fd5b600061194a8582860161184a565b925050602083013567ffffffffffffffff81111561196757600080fd5b61197385828601611820565b9150509250929050565b6000806040838503121561199057600080fd5b600061199e8582860161184a565b92505060206119af8582860161184a565b9150509250929050565b6119c2816123dd565b82525050565b6119d1816123dd565b82525050565b6119e0816123ef565b82525050565b6119ef816123ef565b82525050565b6000611a00826122cf565b611a0a81856122da565b9350611a1a818560208601612434565b611a238161259e565b840191505092915050565b6000611a39826122cf565b611a4381856122eb565b9350611a53818560208601612434565b611a5c8161259e565b840191505092915050565b6000611a746016836122eb565b91507f4469737075746520616c726561647920726169736564000000000000000000006000830152602082019050919050565b6000611ab46019836122eb565b91507f4f6e6c7920636c69656e742063616e2063616c6c2074686973000000000000006000830152602082019050919050565b6000611af46017836122eb565b91507f467265656c616e636572206e6f742076657269666965640000000000000000006000830152602082019050919050565b6000611b346012836122eb565b91507f416c7265616479207265676973746572656400000000000000000000000000006000830152602082019050919050565b6000611b746010836122eb565b91507f5061796d656e74207265717569726564000000000000000000000000000000006000830152602082019050919050565b6000611bb46011836122eb565b91507f4a6f62206e6f7420636f6d706c657465640000000000000000000000000000006000830152602082019050919050565b6000611bf46012836122eb565b91507f526174696e67206d75737420626520302d3500000000000000000000000000006000830152602082019050919050565b6000611c346015836122eb565b91507f4a6f6220616c726561647920636f6d706c6574656400000000000000000000006000830152602082019050919050565b6000611c74600f836122eb565b91507f4a6f6220697320646973707574656400000000000000000000000000000000006000830152602082019050919050565b6000611cb4601d836122eb565b91507f4f6e6c7920667265656c616e6365722063616e2063616c6c20746869730000006000830152602082019050919050565b6000611cf46019836122eb565b91507f467265656c616e636572206e6f742072656769737465726564000000000000006000830152602082019050919050565b6000611d34600e836122eb565b91507f4e6f7420617574686f72697a65640000000000000000000000000000000000006000830152602082019050919050565b608082016000820151611d7d60008501826119b9565b506020820151611d906020850182611e6c565b506040820151611da36040850182611e6c565b506060820151611db660608501826119d7565b50505050565b600061010083016000830151611dd56000860182611e6c565b506020830151611de860208601826119b9565b506040830151611dfb60408601826119b9565b506060830151611e0e6060860182611e6c565b5060808301518482036080860152611e2682826119f5565b91505060a0830151611e3b60a08601826119d7565b5060c0830151611e4e60c08601826119d7565b5060e0830151611e6160e0860182611e6c565b508091505092915050565b611e758161241b565b82525050565b611e848161241b565b82525050565b6000602082019050611e9f60008301846119c8565b92915050565b6000604082019050611eba60008301856119c8565b611ec760208301846119e6565b9392505050565b6000604082019050611ee360008301856119c8565b611ef06020830184611e7b565b9392505050565b6000608082019050611f0c60008301876119c8565b611f196020830186611e7b565b611f266040830185611e7b565b611f3360608301846119e6565b95945050505050565b60006020820190508181036000830152611f5581611a67565b9050919050565b60006020820190508181036000830152611f7581611aa7565b9050919050565b60006020820190508181036000830152611f9581611ae7565b9050919050565b60006020820190508181036000830152611fb581611b27565b9050919050565b60006020820190508181036000830152611fd581611b67565b9050919050565b60006020820190508181036000830152611ff581611ba7565b9050919050565b6000602082019050818103600083015261201581611be7565b9050919050565b6000602082019050818103600083015261203581611c27565b9050919050565b6000602082019050818103600083015261205581611c67565b9050919050565b6000602082019050818103600083015261207581611ca7565b9050919050565b6000602082019050818103600083015261209581611ce7565b9050919050565b600060208201905081810360008301526120b581611d27565b9050919050565b60006080820190506120d16000830184611d67565b92915050565b600060208201905081810360008301526120f18184611dbc565b905092915050565b600060208201905061210e6000830184611e7b565b92915050565b60006040820190506121296000830185611e7b565b61213660208301846119c8565b9392505050565b60006080820190506121526000830187611e7b565b61215f60208301866119c8565b61216c60408301856119c8565b6121796060830184611e7b565b95945050505050565b600061010082019050612198600083018b611e7b565b6121a5602083018a6119c8565b6121b260408301896119c8565b6121bf6060830188611e7b565b81810360808301526121d18187611a2e565b90506121e060a08301866119e6565b6121ed60c08301856119e6565b6121fa60e0830184611e7b565b9998505050505050505050565b600060608201905061221c6000830186611e7b565b61222960208301856119c8565b6122366040830184611e7b565b949350505050565b60006040820190506122536000830185611e7b565b81810360208301526122658184611a2e565b90509392505050565b6000604051905081810181811067ffffffffffffffff821117156122955761229461256f565b5b8060405250919050565b600067ffffffffffffffff8211156122ba576122b961256f565b5b601f19601f8301169050602081019050919050565b600081519050919050565b600082825260208201905092915050565b600082825260208201905092915050565b60006123078261241b565b91506123128361241b565b9250827fffffffffffffffffffffffffffffffffffffffffffffffffffffffffffffffff03821115612347576123466124e2565b5b828201905092915050565b600061235d8261241b565b91506123688361241b565b92508261237857612377612511565b5b828204905092915050565b600061238e8261241b565b91506123998361241b565b9250817fffffffffffffffffffffffffffffffffffffffffffffffffffffffffffffffff04831182151516156123d2576123d16124e2565b5b828202905092915050565b60006123e8826123fb565b9050919050565b60008115159050919050565b600073ffffffffffffffffffffffffffffffffffffffff82169050919050565b6000819050919050565b82818337600083830152505050565b60005b83811015612452578082015181840152602081019050612437565b83811115612461576000848401525b50505050565b6000600282049050600182168061247f57607f821691505b6020821081141561249357612492612540565b5b50919050565b60006124a48261241b565b91507fffffffffffffffffffffffffffffffffffffffffffffffffffffffffffffffff8214156124d7576124d66124e2565b5b600182019050919050565b7f4e487b7100000000000000000000000000000000000000000000000000000000600052601160045260246000fd5b7f4e487b7100000000000000000000000000000000000000000000000000000000600052601260045260246000fd5b7f4e487b7100000000000000000000000000000000000000000000000000000000600052602260045260246000fd5b7f4e487b7100000000000000000000000000000000000000000000000000000000600052604160045260246000fd5b6000601f19601f8301169050919050565b6125b8816123dd565b81146125c357600080fd5b50565b6125cf816123ef565b81146125da57600080fd5b50565b6125e68161241b565b81146125f157600080fd5b5056fea26469706673582212205fe612f079526accb5b004350fec0d7a1af88ba2b440b9a453152350928bca5d64736f6c63430008000033",
  "linkReferences": {},
  "deployedLinkReferences": {}
}